:020000040800F2
:10000000580400209D01000825100008310E00084A
:1000100021100008A9020008ED13000800000000EC
:10002000000000000000000000000000591000085F
:10003000AD02000800000000551000088D100008F7
:10004000B7010008B7010008B7010008B7010008B0
:10005000B7010008B7010008B7010008B7010008A0
:10006000B7010008B7010008B7010008B701000890
:10007000B7010008B7010008B7010008B701000880
:10008000B7010008B7010008B7010008B701000870
:10009000B7010008B7010008B7010008B701000860
:1000A000B7010008B7010008B7010008B701000850
:1000B000B7010008B701000839110008B7010008AE
:1000C000B7010008B7010008B7010008B701000830
:1000D000B7010008B7010008B7010008B701000820
:1000E000B7010008B7010008B7010008B701000810
:1000F000B7010008B7010008B7010008B701000800
:10010000B7010008B7010008B7010008B7010008EF
:10011000B7010008B7010008B7010008B7010008DF
:10012000B7010008B7010008B7010008B7010008CF
:10013000B7010008B7010008B7010008B7010008BF
:10014000B7010008B7010008B7010008B7010008AF
:10015000B7010008B7010008B7010008B70100089F
:10016000B7010008B7010008B7010008B70100088F
:10017000B7010008B7010008B7010008000000003F
:10018000B7010008B7010008DFF80CD000F07AF8DA
:1001900000480047651400085804002006488047BE
:1001A00006480047FEE7FEE7FEE7FEE7FEE7FEE75C
:1001B000FEE7FEE7FEE7FEE71D11000889010008E3
:1001C0002DE9F05F0546002092469B46884606468C
:1001D000814640241BE0284641464746224600F01F
:1001E00041F853465A46C01A914110D31146184659
:1001F000224600F028F82D1A67EB01084F462246E8
:100200000120002100F01FF817EB00094E41201ECD
:10021000A4F10104DFDC484631462A464346BDE8E6
:10022000F09FD2B201E000F8012B491EFBD27047CB
:100230000022F6E710B513460A4604461946FFF7B2
:10024000F0FF204610BD202A04DB203A00FA02F11C
:10025000002070479140C2F1200320FA03F31943B4
:1002600090407047202A04DB203A21FA02F0002156
:10027000704721FA02F3D040C2F1200291400843B6
:1002800019467047064C074D06E0E06840F0010350
:1002900094E8070098471034AC42F6D3FFF778FF94
:1002A000A4140008C4140008FEE700007047000012
:1002B000EFF3108072B600BFFEE700002DE9F04FAB
:1002C00083B000F13E4202F1FF7243F6004E4FEA66
:1002D000B22241F60047C4F2010E0192C4F20207B5
:1002E00008224FF0010B00254FF000084FF00009E5
:1002F000B84208BF072200920AE000BF09F10109D5
:1003000008F10408B9F1100F05F1020500F0A18011
:100310000F680BFA09F417EA040CEFD0D1F804A027
:10032000BAF1120F15D80BFA0AF717F0061F10D002
:1003300087680322CE68AA4027EA0202AE40324311
:1003400082604268A243CAF3001404FA09F422430B
:100350004260C26803238E6803FA05F4A2436FEA81
:10036000040B06FA05F422434AF01004122CC26072
:100370000FD16FF0030202EA5902024408F01C0692
:100380000F23146A03FA06F70B69BC43B3402343F7
:10039000136202684B6802EA0B0203F00304AC40EC
:1003A0002243DB004FF0010B0260A7D5002243F689
:1003B00044030292C4F202031A684FF6084A42F458
:1003C00080421A601A68CFF6FF7A02F480420292E5
:1003D000029A29F00302724452F80A3008F00C0421
:1003E0000F26A640019FB343009E072F38BF3E460D
:1003F00006FA04F4234342F80A30DEF800204B6882
:1004000042EA0C04DE0358BF22EA0C04CEF8004096
:10041000DEF804209E0342EA0C0458BF22EA0C04D2
:10042000CEF80440DEF80820DE0242EA0C0458BF91
:1004300022EA0C04CEF8084043F60C44C4F201044E
:1004400022689B0242EA0C0358BF22EA0C03236095
:1004500054E703B0BDE8F08F002A08BF09048161AA
:100460007047000040F25400C2F20000006870477C
:1004700040F2040040F25401C2F20000C2F2000156
:1004800000680A68104408607047000080B543F6B1
:100490000040C4F20200016841F40071016001688B
:1004A00041F480610160016841F4807101600320C2
:1004B00000F064F8002000F005F800F02BF80020B0
:1004C00080BD0000B0B540F20402C2F2000240F26A
:1004D00000011268C2F200014FF47A730968B3FB9D
:1004E000F2F20446B1FBF2F1084600F0CBFA0F2C11
:1004F0004FF001050CD858B94FF0FF3021460022CB
:10050000002500F02BF840F20800C2F20000046061
:100510002846B0BD80B582B0002043F6400101906E
:10052000C4F202014A6842F480424A604A6802F416
:1005300080420192019A0090086840F08050086063
:10054000086800F0805000900098072000F016F82E
:1005500002B080BD80B500F04BFF80BD70B5144681
:100560000D46064600F054FF2946224600F05CFD89
:100570000146304600F054FF70BD000080B500F029
:1005800061FF80BD2DE9F041002800F08B8043F62B
:100590000808C4F202080446D8F8F8030D4600F033
:1005A0000F00884207D288F8F853D8F8F80300F013
:1005B0000F00A84276D12068810717D5410705D5DD
:1005C000D8F8001041F4E051C8F80010010705D533
:1005D000D8F8001041F46041C8F80010D8F80010B5
:1005E000A26821F0F0011143C8F80010C0073FD104
:1005F000D8F8F80300F00F00A84207D988F8F8539C
:10060000D8F8F80300F00F00A8424BD1206841074A
:1006100007D5D8F80010E26821F4E0511143C8F87A
:100620000010000708D5D8F80000216920F46040C8
:1006300040EAC100C8F8000000F054F8D8F80010F3
:1006400041F29442C1F30311C0F60002515C40F242
:10065000000220FA01F140F20800C2F20000006836
:10066000C2F200021160FFF72DFF0020BDE8F0810B
:100670006068811E022907D258F8081C89015CBFF6
:100680000120BDE8F08110E0012807D158F8081CCE
:1006900089035CBF0120BDE8F08106E058F8081C22
:1006A000890702D40120BDE8F081D8F8001021F0BC
:1006B00003010843C8F80000FFF7D4FE064641F2E4
:1006C000883700BFD8F80000616800F00C00B0EB7C
:1006D000810F8DD0FFF7C6FE801BB842F2D90320F0
:1006E000BDE8F08110B543F60404C4F2020460686A
:1006F00000F00C0142F200400829C0F2F40007D0DB
:10070000042918BF10BD40F60010C0F23D0010BD16
:10071000216801F03F02216823684902C3F3881170
:1007200005D4A1FB00010023FFF74AFD06E040F6D7
:100730000010C0F23D004843B0FBF2F021680222F5
:10074000C1F3014102EB4101B0FBF1F010BD00002B
:100750002DE9F04182B0002800F09880044600782E
:1007600043F60006C007C4F2020643D0B06800F0AA
:100770000C00042805D1306880033BD56068C8BBF5
:1007800084E0B06800F00C00082802D170684002D4
:10079000F1D46568B5F5A02F0AD0B5F5803F0BD030
:1007A000306820F480303060306820F4802006E02B
:1007B000306840F480203060306840F48030306031
:1007C000FFF750FE002D054611D000BF30688003B2
:1007D00010D4FFF747FE401B6428F7D918E100BF8B
:1007E000FFF740FE401B64284FF003004BD83068F1
:1007F0008003F5D42078800719D5B06810F00C0F6D
:1008000008D0B06800F00C00082840F080807068C4
:1008100040027CD43068800702D5E068012835D1D9
:100820003068216920F0F80040EAC100306020788B
:1008300000072FD42078400743D4A56915B3B068CA
:1008400000F00C00082840F09580012D1ED0706843
:10085000E16900F480028A4218D1216A00F03F0267
:100860008A4213D147F6C071626A014091420DD1AC
:10087000A16A00F440328A4208D1E16A00F0706057
:10088000884203D1002002B0BDE8F081012002B00F
:10089000BDE8F0816069002840F20000C4F2472002
:1008A00057D00121C0F8801EFFF7DCFD054600BFD0
:1008B000706F8007BED4FFF7D5FD401B0228F7D923
:1008C000A6E0306C10F080580AD100200190306C06
:1008D00040F080503064306C00F0805001900198FE
:1008E00047F20007C4F200073868C00524D438680E
:1008F00040F480703860FFF7B5FD05463868C005E4
:100900001AD4FFF7AFFD401B0228F7D980E0E0685A
:10091000002851D00020C4F2472001210160FFF7D8
:10092000A1FD0546306880073FF57AAFFFF79AFDD5
:10093000401B0228F6D96BE0A568052D50D0012D8B
:1009400052D0306F20F001003067306F20F004008B
:100950004DE00021C0F8801EFFF784FD054600BF72
:10096000706F80077FF566AFFFF77CFD401B0228A4
:10097000F6D94DE00027C4F2472700203866FFF77C
:1009800071FD022D05460BD13068800158D5FFF767
:1009900069FD401B02284FF00300F5D973E700BF43
:1009A000306880017FF56EAFFFF75CFD401B0228C9
:1009B0004FF00300F4D966E70020C4F2472000217D
:1009C0000160FFF74FFD0546306880077FF52FAFC8
:1009D000FFF748FD401B02284FF00300F4D952E70F
:1009E000306F40F004003067306F40F00100306736
:1009F000FFF738FD002D054641F2883714D000BFBF
:100A0000306F800713D4FFF72DFD401BB842F7D994
:100A1000032002B0BDE8F081FFF724FD401BB8427F
:100A20004FF003003FF62FAF306F8007F4D4B8F1DA
:100A3000000F7FF402AF306C20F080503064FCE691
:100A400004F11C052FCD084340EA8210D9034FF66C
:100A5000FF729143A1F5803140EA05600843706060
:100A600001203866FFF7FEFC044600BF30688001B5
:100A70003FF508AFFFF7F6FC001B02284FF003001C
:100A8000F4D900E780B500F0E9FA80BD70470000B6
:100A90007047000010B5C26B012A4FF002024ED021
:100AA0000123C36302640268D2F804E0D2F808C0EC
:100AB0000C682EF07003234341F2FF74C4F200046B
:100AC000A24253600DDC40F2FF73C4F200039A426D
:100AD00015DCB2F1804F29D040F20043C4F200038C
:100AE00022E040F2FF33C4F201039A4212DC41F6E5
:100AF0000003C4F200039A4218D0002312E040F62B
:100B00000003C4F200039A4210D040F60043C4F23E
:100B1000000309E044F20003C4F201039A4205D045
:100B200040F20043C4F201039A4204D149682CF018
:100B3000800319439160012100220164C2631046C1
:100B400010BD00007047000010B504460068016940
:100B5000890744BFC1685FEA817138D420680169A0
:100B6000490744BFC1685FEA41713CD4206801690C
:100B7000090744BFC1685FEA017141D42068016977
:100B8000C90644BFC1685FEAC16145D420680169F4
:100B9000C9071CBFC1685FEAC1714AD120680169F9
:100BA000090644BFC1685FEA016149D42068016950
:100BB000490644BFC1685FEA416148D420680169C1
:100BC000890644BFC1685FEA816147D410BD6FF0F8
:100BD000020101610121E1618069800745D0204661
:100BE000FFF7B0FF47E06FF0040101610221E1610E
:100BF000806910F4407F41D02046FFF7A3FF43E017
:100C00006FF0080101610421E161C06980073ED0F5
:100C10002046FFF797FF40E06FF0100101610821C7
:100C2000E161C06910F4407F3AD02046FFF78AFFA7
:100C30003CE06FF001010161204600F0F5F8ADE7FE
:100C40006FF0800101612046FFF720FFAEE76FF0F3
:100C500040010161204600F0E9F8AFE76FF02001A4
:100C600001612046FFF714FF10BD204600F050F848
:100C7000204600F0D7F80020E0616FE7204600F042
:100C800047F8204600F0CEF80020E0616EE72046ED
:100C900000F03EF8204600F0C5F80020E0616DE766
:100CA000204600F035F8204600F0BCF80020E06156
:100CB0006CE7000080B586B000220592CDE90322E2
:100CC00040F600010068C4F20001884202920192DD
:100CD00001D006B080BD43F630000092C4F202009D
:100CE000036843F002030360006800F00200009014
:100CF00000984FF4C07001900220CDE90202CDE9C6
:100D0000042001F5FE3001A9FFF7D8FA06B080BD36
:100D10007047000070B50446C06B01284FF0020018
:100D200008BF70BD0D464FEAB20101260329E663F4
:100D3000206436D8DFE801F0020A12222068294632
:100D400000F094FA206850F8181F0EE02068294639
:100D500000F0BCFA206850F8181F16E020682946F9
:100D600000F0E8FA206850F81C1F41F0080101600B
:100D7000016821F00401016029690FE0206829461B
:100D800000F00CFB206850F81C1F41F4006101606A
:100D9000016821F480610160296909020268114338
:100DA000016000202664E06370BD0000002804BFDD
:100DB0000120704710B50446006C20B90020E063A4
:100DC000204600F00BF8022020642068211D00F06E
:100DD000BBF901202064002010BD000080B582B066
:100DE000006840F60001C4F20001884201D002B060
:100DF00080BD0020019043F64000C4F2020001686B
:100E0000002241F0040101600068002100F00400AC
:100E1000019001981E20FFF7A1FB1E20FFF79AFB0F
:100E200002B080BD704700007047000070470000AE
:100E3000FEE700002DE9F04387B0002743F63000BD
:100E40000697CDE90477CDE902770197C4F2020055
:100E5000016840F6004441F0100101600168C4F2ED
:100E6000020401F01001019101990197016800222B
:100E700041F00401016001684FF4704801F0040181
:100E8000019101990197016841F0800101600168B9
:100E900001F08001019101990197016841F0010180
:100EA0000160016801F00101019101990197016858
:100EB00041F002010160016801F002010191019914
:100EC0000197016841F00801016000684FF470412A
:100ED00000F00800019001982046FFF7BDFA4FF698
:100EE000FF7002AD02904FF0030904F580602946BF
:100EF000CDE90397FFF7E2F943F6FF70CDE9020968
:100F0000A4F5806029460497FFF7D8F949F6FF70E9
:100F1000CDE90209A4F5406029460497FFF7CEF910
:100F20004FF67360A4F50066CDE902093046294604
:100F30000497FFF7C3F90420CDE90207304629469C
:100F40000497FFF7BBF940F6FF70CDE90209204690
:100F500029460497FFF7B2F90120CDF80880CDE9C2
:100F60000307204629460597FFF7A8F907B0BDE813
:100F7000F083000010B58AB040F2100040F6000186
:100F80000024C2F20000C4F200014FF6FF7209947F
:100F9000CDE90744CDE90544CDE90344CDE9014459
:100FA000C0E90014C0E9024204618461FFF7FEFE5B
:100FB000002818BFFFF77CF940F21000C2F20000D1
:100FC00008A9CDE90844FFF765FD002818BFFFF721
:100FD0006FF9602001900020CDE90200059040F2F9
:100FE0001000C2F2000001A90422FFF793FE0028BE
:100FF00018BFFFF75DF940F21000C2F2000001A92E
:101000000822FFF787FE002818BFFFF751F940F2CA
:101010001000C2F20000FFF74DFE0AB010BD000044
:10102000FEE70000FEE7000000F0070080F0070385
:10103000042B28BF04234FF0FF3C03380CFA03F3C2
:1010400038BF0020994381400CFA00F022EA0000EA
:10105000084370477047000070470000B0B5013882
:101060000024B4EB106F1CBF0120B0BD4EF2100580
:10107000CEF2000568604FF0FF300F2100F0D0F98C
:101080000720AC6028602046B0BD000080B5FFF7A7
:10109000EFF980BDB0B592B006AC20463021FFF725
:1010A000C7F8002543F640000595CDE90355CDE985
:1010B00001550095C4F20200016841F080510160C1
:1010C000006800F080500090009847F20000009502
:1010D000C4F20000016841F480410160006800F43E
:1010E0008040009000980220069001200990102076
:1010F0000A9020460C95FFF72BFB68B90F20CDE92D
:10110000010501A80021CDE903550595FFF73AFA3D
:10111000002804BF12B0B0BDFFF7CAF84EF68850E1
:10112000CEF20000016841F4700101604FF00061EF
:1011300040F8801C7047000080B540F21000C2F2F9
:101140000000FFF701FD80BD10B540F6FF3E0368CB
:10115000C4F2000E40F2004C7045C4F2010C0FDCEA
:10116000B0F1804F19D040F20042C4F20002904228
:1011700013D040F60002C4F2000290420DD010E0FD
:1011800040F60042C4F20002904206D0604504D00E
:101190000022C4F20102904203D14A6823F0700396
:1011A000134341F6FF72C4F2000290420DDC704519
:1011B0001FDCB0F1804F41D040F20042C4F2000287
:1011C00090423BD040F6000221E043F6FF72C4F2A9
:1011D0000102904220DC42F20002C4F2000290427E
:1011E0002CD00022C4F20102904227D0604525D0C5
:1011F00028E040F60042C4F2000290421ED041F6C0
:101200000002C4F20002904218D041F60042C4F23B
:101210000002904212D015E044F20002C4F2010232
:1012200090420BD044F60002C4F20102904205D075
:1012300044F20042C4F20102904203D1CA6823F48E
:101240004073134323F080024B69D1F800E08C68AF
:101250001A430260C46240F48062C0F828E062452C
:1012600004BF096901630121416110BD70B5026AC3
:1012700040F2004522F001020262036A4268D0F89F
:1012800018C08E68D1F800E023F0020340F48064B7
:10129000C4F20105AC4243EA060305D1CE6823F04F
:1012A0000C0326F004063343AC4205D1D1E90545D1
:1012B00022F4407222432A432CF0730646EA0E06BB
:1012C0004260866149684163036270BDF0B5026A9D
:1012D00040F2004522F010020262036A4268D0F830
:1012E00018C08E68D1F800E023F0200340F4806439
:1012F000C4F20105AC4243EA061307D1CE686FF091
:10130000400723F0C00307EA06163343AC4207D177
:10131000D1E9054522F4406242EA840242EA8502AC
:101320002CF4E64747EA0E274260876149688163EB
:101330000362F0BDF0B5026A40F2004522F480720B
:101340000262036A4268D0F81CC08E68D1F800E0DF
:1013500023F4007340F48064C4F20105AC4243EA14
:10136000062307D1CE6840F2FF47360223F44063DC
:10137000BE433343AC4207D1D1E9054522F4405284
:1013800042EA041242EA05122CF0730747EA0E07FC
:101390004260C7614968C1630362F0BD70B5026A0B
:1013A00040F2004622F480520262026A4368D0F89A
:1013B0001CE00C68D1F808C040F48065C4F2010656
:1013C000B54204D14D6923F4804343EA85132EF4DA
:1013D000E64646EA04264360C66122F400524968A4
:1013E00042EA0C320164026270BD0000FEE70000B8
:1013F000002848BF704700F01F01012202FA01F1E6
:101400004EF200124009CEF2000242F8201070475E
:101410004EF60C50CEF200000068C0F30220704778
:101420004EF6145300F00F02CEF2000309011A44E5
:1014300000F16043B0F1FF3FC8BF03F56442117093
:10144000704700004EF60C51CEF200010A684FF6CC
:10145000FF031A4060F30A2242F0806040F0FD7002
:1014600008607047FFF712F8FFF714FEFFF7E2FC81
:10147000FFF780FDFEE702E008C8121F08C1002A3E
:10148000FAD170477047002001E001C1121F002A05
:10149000FBD17047000000000000000001020304BF
:1014A00006070809C814000800000020100000000A
:1014B00076140008D814000810000020480400002A
:1014C00086140008000000000024F4000100000061
:0814D000100000000000000004
:040000050800018965
:00000001FF
