:020000040800F2
:10000000400400209D010008650E0008190B00083F
:10001000610E0008A9020008AD0F000800000000F2
:10002000000000000000000000000000990E000821
:10003000AD02000800000000950E0008CD0E00087B
:10004000B7010008B7010008B7010008B7010008B0
:10005000B7010008B7010008B1020008B7010008A5
:10006000B7010008B7010008B7010008B701000890
:10007000B7010008B7010008B7010008B701000880
:10008000B7010008B7010008B7010008B701000870
:10009000B7010008B7010008B7010008B701000860
:1000A000B7010008B7010008B7010008B701000850
:1000B000B7010008B7010008B7010008B701000840
:1000C000B7010008B7010008B7010008B701000830
:1000D000B7010008B7010008B7010008B701000820
:1000E000B7010008B7010008B7010008B701000810
:1000F000B7010008B7010008B7010008B701000800
:10010000B7010008B7010008B7010008B7010008EF
:10011000B7010008B7010008B7010008B7010008DF
:10012000B7010008B7010008B7010008B7010008CF
:10013000B7010008B7010008B7010008B7010008BF
:10014000B7010008B7010008B7010008B7010008AF
:10015000B7010008B7010008B7010008B70100089F
:10016000B7010008B7010008B7010008B70100088F
:10017000B7010008B7010008B7010008000000003F
:10018000B7010008B7010008DFF80CD000F07AF8DA
:10019000004800474D1000084004002006488047F2
:1001A00006480047FEE7FEE7FEE7FEE7FEE7FEE75C
:1001B000FEE7FEE7FEE7FEE7910F00088901000871
:1001C0002DE9F05F0546002092469B46884606468C
:1001D000814640241BE0284641464746224600F01F
:1001E00041F853465A46C01A914110D31146184659
:1001F000224600F028F82D1A67EB01084F462246E8
:100200000120002100F01FF817EB00094E41201ECD
:10021000A4F10104DFDC484631462A464346BDE8E6
:10022000F09FD2B201E000F8012B491EFBD27047CB
:100230000022F6E710B513460A4604461946FFF7B2
:10024000F0FF204610BD202A04DB203A00FA02F11C
:10025000002070479140C2F1200320FA03F31943B4
:1002600090407047202A04DB203A21FA02F0002156
:10027000704721FA02F3D040C2F1200291400843B6
:1002800019467047064C074D06E0E06840F0010350
:1002900094E8070098471034AC42F6D3FFF778FF94
:1002A0009C140008BC140008FEE700007047000022
:1002B00080B5012000F03AF880BD0000EFF3108017
:1002C00072B600BFFEE7000040F22C00C2F2000050
:1002D000016891B940F22401C2F20001096840F2BC
:1002E0003402C2F20002116040F21001C2F20001B9
:1002F00001220A604FF0FF3101600168012918BF37
:10030000704740F22401C2F20001096840F2340251
:10031000C2F20002116040F21001C2F20001032299
:100320000A604FF0FF3101607047000080B543F66E
:100330001441C4F201010A68024208BF80BD08608E
:10034000FFF7C2FF80BD00002DE9F04F83B000F140
:100350003E4202F1FF7243F6004E4FEAB22241F6EE
:100360000047C4F2010E0192C4F2020708224FF0C6
:10037000010B00254FF000084FF00009B84208BFFC
:10038000072200920AE000BF09F1010908F1040800
:10039000B9F1100F05F1020500F0A1800F680BFA0A
:1003A00009F417EA040CEFD0D1F804A0BAF1120F47
:1003B00015D80BFA0AF717F0061F10D0876803222A
:1003C000CE68AA4027EA0202AE4032438260426809
:1003D000A243CAF3001404FA09F422434260C2683B
:1003E00003238E6803FA05F4A2436FEA040B06FAAE
:1003F00005F422434AF01004122CC2600FD16FF0B2
:10040000030202EA5902024408F01C060F23146A90
:1004100003FA06F70B69BC43B34023431362026837
:100420004B6802EA0B0203F00304AC402243DB00FA
:100430004FF0010B0260A7D5002243F6440302925D
:10044000C4F202031A684FF6084A42F480421A6066
:100450001A68CFF6FF7A02F480420292029A29F0DB
:100460000302724452F80A3008F00C040F26A6402A
:10047000019FB343009E072F38BF3E4606FA04F49F
:10048000234342F80A30DEF800204B6842EA0C04AD
:10049000DE0358BF22EA0C04CEF80040DEF8042048
:1004A0009E0342EA0C0458BF22EA0C04CEF8044032
:1004B000DEF80820DE0242EA0C0458BF22EA0C04EF
:1004C000CEF8084043F60C44C4F2010422689B02B3
:1004D00042EA0C0358BF22EA0C03236054E703B03E
:1004E000BDE8F08F002A08BF090481617047000051
:1004F00040F23800C2F200000068704740F2040089
:1005000040F23801C2F20000C2F2000100680A683D
:10051000104408607047000080B543F60040C4F204
:100520000200016841F400710160016841F48061DA
:100530000160016841F480710160032000F064F8FB
:10054000002000F005F800F02BF8002080BD00002E
:10055000B0B540F20402C2F2000240F2000112689B
:10056000C2F200014FF47A730968B3FBF2F2044659
:10057000B1FBF2F1084600F0CBFA0F2C4FF0010569
:100580000CD858B94FF0FF3021460022002500F06A
:100590002BF840F20800C2F2000004602846B0BD0B
:1005A00080B582B0002043F640010190C4F2020100
:1005B0004A6842F480424A604A6802F480420192EA
:1005C000019A0090086840F080500860086800F0C8
:1005D000805000900098072000F016F802B080BD0F
:1005E00080B500F0E5FC80BD70B514460D460646AA
:1005F00000F0EEFC2946224600F036FC014630466B
:1006000000F0EEFC70BD000080B500F0FBFC80BD8A
:100610002DE9F041002800F08B8043F60808C4F271
:1006200002080446D8F8F8030D4600F00F0088428F
:1006300007D288F8F853D8F8F80300F00F00A84262
:1006400076D12068810717D5410705D5D8F8001065
:1006500041F4E051C8F80010010705D5D8F80010A2
:1006600041F46041C8F80010D8F80010A26821F0E9
:10067000F0011143C8F80010C0073FD1D8F8F803C3
:1006800000F00F00A84207D988F8F853D8F8F8030B
:1006900000F00F00A8424BD12068410707D5D8F8D9
:1006A0000010E26821F4E0511143C8F8001000077F
:1006B00008D5D8F80000216920F4604040EAC10064
:1006C000C8F8000000F054F8D8F8001041F28A424F
:1006D000C1F30311C0F60002515C40F2000220FA9F
:1006E00001F140F20800C2F200000068C2F200020C
:1006F0001160FFF72DFF0020BDE8F0816068811ECA
:10070000022907D258F8081C89015CBF0120BDE806
:10071000F08110E0012807D158F8081C89035CBF5C
:100720000120BDE8F08106E058F8081C890702D4D2
:100730000120BDE8F081D8F8001021F00301084342
:10074000C8F80000FFF7D4FE064641F2883700BF24
:10075000D8F80000616800F00C00B0EB810F8DD07C
:10076000FFF7C6FE801BB842F2D90320BDE8F08136
:1007700010B543F60404C4F20204606800F00C01F2
:1007800042F200400829C0F2F40007D0042918BF43
:1007900010BD43F20000C0F2750010BD216801F0E9
:1007A0003F02216823684902C3F3881105D4A1FBE5
:1007B00000010023FFF704FD06E043F20000C0F251
:1007C00075004843B0FBF2F021680222C1F30141F9
:1007D00002EB4101B0FBF1F010BD00002DE9F0414A
:1007E00082B0002800F098800446007843F60006A6
:1007F000C007C4F2020643D0B06800F00C00042821
:1008000005D1306880033BD56068C8BB84E0B06820
:1008100000F00C00082802D170684002F1D465682D
:10082000B5F5A02F0AD0B5F5803F0BD0306820F485
:1008300080303060306820F4802006E0306840F47A
:1008400080203060306840F480303060FFF750FE28
:10085000002D054611D000BF3068800310D4FFF78B
:1008600047FE401B6428F7D918E100BFFFF740FEA0
:10087000401B64284FF003004BD830688003F5D448
:100880002078800719D5B06810F00C0F08D0B06838
:1008900000F00C00082840F08080706840027CD492
:1008A0003068800702D5E068012835D130682169B9
:1008B00020F0F80040EAC1003060207800072FD413
:1008C0002078400743D4A56915B3B06800F00C0048
:1008D000082840F09580012D1ED07068E16900F471
:1008E00080028A4218D1216A00F03F028A4213D165
:1008F00047F6C071626A014091420DD1A16A00F4CD
:1009000040328A4208D1E16A00F07060884203D127
:10091000002002B0BDE8F081012002B0BDE8F08106
:100920006069002840F20000C4F2472057D001213E
:10093000C0F8801EFFF7DCFD054600BF706F800722
:10094000BED4FFF7D5FD401B0228F7D9A6E0306CD6
:1009500010F080580AD100200190306C40F0805097
:100960003064306C00F080500190019847F200072D
:10097000C4F200073868C00524D4386840F4807099
:100980003860FFF7B5FD05463868C0051AD4FFF793
:10099000AFFD401B0228F7D980E0E068002851D065
:1009A0000020C4F2472001210160FFF7A1FD0546A8
:1009B000306880073FF57AAFFFF79AFD401B0228A9
:1009C000F6D96BE0A568052D50D0012D52D0306FBF
:1009D00020F001003067306F20F004004DE000216E
:1009E000C0F8801EFFF784FD054600BF706F8007CA
:1009F0007FF566AFFFF77CFD401B0228F6D94DE07E
:100A00000027C4F2472700203866FFF771FD022D4A
:100A100005460BD13068800158D5FFF769FD401BB2
:100A200002284FF00300F5D973E700BF306880015A
:100A30007FF56EAFFFF75CFD401B02284FF003000F
:100A4000F4D966E70020C4F2472000210160FFF7D7
:100A50004FFD0546306880077FF52FAFFFF748FD53
:100A6000401B02284FF00300F4D952E7306F40F0EA
:100A700004003067306F40F001003067FFF738FD49
:100A8000002D054641F2883714D000BF306F800733
:100A900013D4FFF72DFD401BB842F7D9032002B055
:100AA000BDE8F081FFF724FD401BB8424FF0030082
:100AB0003FF62FAF306F8007F4D4B8F1000F7FF40A
:100AC00002AF306C20F080503064FCE604F11C056D
:100AD0002FCD084340EA8210D9034FF6FF729143AD
:100AE000A1F5803140EA0560084370600120386656
:100AF000FFF7FEFC044600BF306880013FF508AFF9
:100B0000FFF7F6FC001B02284FF00300F4D900E7C2
:100B100080B500F0C3F980BDFEE7000080B586B067
:100B2000002043F630010190C4F202010A6842F04D
:100B300008020A60096801F00801019101994FF467
:100B4000704101910121CDE902100220049040F68C
:100B50000040C4F2020001A9FFF7F6FB06B080BD19
:100B60002DE9F04381B040F2380640F23407C2F27A
:100B70000006C2F200073168386840F2100541F201
:100B80008832C2F2000502442868914220F0020136
:100B90001CD900293FD003285AD001286FD1022048
:100BA000286040F22C0040F60044C2F2000001210F
:100BB000C4F20204016020464FF480510122FFF785
:100BC00091FC20464FF40041002256E0012956D105
:100BD00040F60044C4F2020420464FF400410022D3
:100BE0004FF00009FFF77EFC20464FF480510022B1
:100BF000FFF778FC40F21408C2F2000898F80000F1
:100C0000012817D120464FF480410022FFF76AFCEB
:100C100088F8009033E040F60044C4F20204204615
:100C20004FF480410022FFF75DFC20464FF4005155
:100C3000002222E098F80100012820D120464FF43C
:100C400080410122FFF74EFC002088F8010016E0E9
:100C500040F22C0140F600440020C2F20001C4F230
:100C600002042860086020464FF480510022FFF7FC
:100C700039FC20464FF400410122FFF733FC306875
:100C8000396841F288321144884247D828680128DF
:100C900024D0032842D140F21404C2F20004A07808
:100CA00001280AD140F60040C4F202004FF400517E
:100CB00000220025FFF716FCA570E07801282DD151
:100CC00040F60040C4F202004FF400510122FFF749
:100CD00009FC0020E07001B0BDE8F08340F214048C
:100CE000C2F20004207901280AD140F60040C4F283
:100CF00002004FF4005100220025FFF7F3FB25719D
:100D0000607901280AD140F60040C4F202004FF495
:100D100000510122FFF7E6FB0020607101B0BDE841
:100D2000F08300002DE9F04387B0002743F6300040
:100D30000697CDE90477CDE902770197C4F2020066
:100D40000168002441F0100101600168C4F202044E
:100D500001F01001019101990197016802AD41F084
:100D60000401016001684FF6FF7801F00401019170
:100D70000199019701684FF0030941F0800101607A
:100D8000016801F08001019101990197016841F02A
:100D900001010160016801F00101019101990197D0
:100DA000016841F002010160016801F00201019156
:100DB00001990197016841F0080101600068294626
:100DC00000F008000190019804F58050CDF80880EB
:100DD000CDE90397FFF7B8FA43F6FF70CDE90209B2
:100DE00004F5006029460497FFF7AEFA012002904F
:100DF0000020C1F21100CDE9030720462946FFF784
:100E0000A3FA49F6FE70CDE9020920462946049767
:100E1000FFF79AFA4FF6F37004F58066CDE9020900
:100E2000304629460497FFF78FFA0420CDE90207E0
:100E3000304629460497FFF787FA04F540602946B3
:100E4000CDE902890497FFF77FFA062000210022EE
:100E5000FFF7CAFB0620FFF7C3FB07B0BDE8F0832E
:100E6000FEE70000FEE7000000F0070080F0070347
:100E7000042B28BF04234FF0FF3C03380CFA03F384
:100E800038BF0020994381400CFA00F022EA0000AC
:100E9000084370477047000070470000B0B5013844
:100EA0000024B4EB106F1CBF0120B0BD4EF2100542
:100EB000CEF2000568604FF0FF300F2100F090F88F
:100EC0000720AC6028602046B0BD000080B500F06F
:100ED000E7F840F23800C2F20000006840F2280152
:100EE000C2F200010860FFF709FB80BD70B592B047
:100EF00006AC20463021FFF79BF9002543F6400061
:100F00000595CDE90355CDE901550095C4F20200E0
:100F10000168022641F080510160006800F08050B5
:100F20000090009847F200000095C4F200000168AC
:100F300041F480410160006800F480400090009816
:100F4000012006904FF4803007904FF480000D9000
:100F500004200E9064200C96CDE90F060720119016
:100F60002046FFF73BFC80B90F20CDE90106802029
:100F700003904FF48050CDE9040501A80121FFF74B
:100F800047FB002804BF12B070BDFFF797F90000BF
:100F90004EF68850CEF20000016841F47001016005
:100FA0004FF0006140F8801C70470000FEE7000031
:100FB000002848BF704700F01F01012202FA01F12A
:100FC0004EF200124009CEF2000242F820107047A3
:100FD0004EF60C50CEF200000068C0F302207047BD
:100FE0004EF6145300F00F02CEF2000309011A442A
:100FF00000F16043B0F1FF3FC8BF03F564421170D8
:10100000704700004EF60C51CEF200010A684FF610
:10101000FF031A4060F30A2242F0806040F0FD7046
:101020000860704780B586B04FF4206001900120C1
:101030000290002003900220049040F60040C4F289
:10104000020001A9FFF780F906B080BDFFF764FA3E
:10105000FFF74CFFFFF766FEFFF760FDFFF7E2FFCB
:1010600040F60044C4F2020420464FF4004101223D
:10107000FFF738FA20464FF480410122FFF732FA99
:1010800020464FF480510122FFF72CFA20464FF4FE
:1010900000510122FFF726FAFFF762FDFCE700008E
:1010A00080B582B0FFF724FA0190019840F2240144
:1010B000C2F20001086040F22800C2F2000040F2D3
:1010C000300E09680268C2F2000EDEF80030891A9C
:1010D0001944CEF80010DEF80010B1F57A7F24BF75
:1010E0000021CEF8001040F21001C2F200010968A0
:1010F00021F00202012A25D140F21402C2F20002BC
:101100001378EBB9DEF8003047F6D50CC2F2E96C83
:1011100003FB0CF341F26E204FEAB303C0F28300ED
:1011200083420DD8DEF8000048F6381300FB0CF0BF
:101130004FEAF000C0F24103984224BF0120107032
:101140005078D8B303294CD140F21402C2F2000205
:101150009078F8B9DEF8000042F64703CBF2A373AB
:10116000584346F29F134FEA7000C0F2570398426B
:1011700010D8DEF8000047F6D503C2F2E963584301
:1011800048F638134FEAF000C0F24103984224BFFA
:1011900001209070D07820BBDEF8000047F6D50320
:1011A000C2F2E963584348F637134FEAF000C0F241
:1011B000410398429CBF0120D07012E0DEF800008D
:1011C00047F6D503C2F2E963584348F637134FEAAE
:1011D000F000C0F2410398429CBF012050700329E7
:1011E000B2D0012940D140F21402C2F200021079BB
:1011F000C0BBDEF8000047F6D50CC2F2E96C00FB7C
:101200000CF042F2DD434FEA7000C0F20613984240
:1012100028D8DEF8000048F6381300FB0CF04FEA3F
:10122000F000C0F2410398421CD3DEF8000041F206
:101230006F2300FB0CF04FEAB000C0F2830398422A
:1012400010D3DEF8000042F64703CBF2A3735843F5
:1012500046F2A0134FEA7000C0F25703984224BF31
:1012600001201071D07860B3022951D0002975D1C6
:1012700040F21402C2F200029079E8B9DEF80000F0
:101280004CF6CD4CCCF6CC4C00FB0CF049F6991347
:101290004FEA7000C1F6991398420DD8DEF80000AD
:1012A0004CF6CD4300FB0CF04FEAB000C0F6CC4347
:1012B000984224BF01209071D079B0B1022927D083
:1012C0004CE0DEF8000047F6D503C2F2E96358436C
:1012D00048F637134FEAF000C0F2410398429CBF32
:1012E000012050710229C1D112E0DEF800004CF655
:1012F000CD43CCF6CC4358434CF6CC434FEAB00038
:10130000C0F6CC4398429CBF0120D071022925D160
:1013100040F21402C2F20002907AE8B9DEF800004E
:101320004CF6CD4CCCF6CC4C00FB0CF049F69913A6
:101330004FEA7000C1F6991398420DD8DEF800000C
:101340004CF6CD4300FB0CF04FEAB000C0F6CC43A6
:10135000984224BF01209072D07AC8B301294AD1A3
:1013600040F21402C2F20002107AE8B9DEF800007E
:101370004CF6CD4CCCF6CC4C00FB0CF04CF6CC43F0
:101380004FEAB000C0F6CC4398420DD8DEF800001A
:1013900046F2676300FB0CF04FEAF000C0F26663B0
:1013A000984224BF01201072507A20BBDEF8000062
:1013B0004CF6CD43CCF6CC43584346F266634FEA35
:1013C000F000C0F2666398429CBF0120507212E0A8
:1013D000DEF800004CF6CD43CCF6CC4358434CF637
:1013E000CC434FEAB000C0F6CC4398429CBF0120EA
:1013F000D0720129B4D0032923D140F21401C2F2E2
:101400000001087BD8B9DEF800004CF6CD42CCF6DE
:10141000CC4250434CF6CC434FEAB000C0F6CC432C
:1014200098420CD8DEF80000504346F267624FEA5B
:10143000F000C0F26662904224BF01200873487B2E
:1014400008B102B080BDDEF800004CF6CD42CCF60B
:10145000CC42504346F266624FEAF000C0F2666248
:1014600090429CBF0120487302B080BD02E008C8D2
:10147000121F08C1002AFAD170477047002001E00E
:1014800001C1121F002AFBD17047000000000000BC
:10149000000001020304060708090000C014000848
:1014A00000000020100000006C140008D014000898
:1014B00010000020300400007C1400080000000030
:1014C0000024F400010000001000000000000000F3
:040000050800018965
:00000001FF
