:020000040800F2
:10000000180400209D010008F90B0008850A00086B
:10001000F50B0008A9020008290D000800000000E7
:100020000000000000000000000000002D0C00088F
:10003000AD02000800000000290C0008610C000857
:10004000B7010008B7010008B7010008B7010008B0
:10005000B7010008B7010008B7010008B7010008A0
:10006000B7010008B7010008B7010008B701000890
:10007000B7010008B7010008B7010008B701000880
:10008000B7010008B7010008B7010008B701000870
:10009000B7010008B7010008B7010008B701000860
:1000A000B7010008B7010008B7010008B701000850
:1000B000B7010008B7010008B7010008B701000840
:1000C000B7010008B7010008B7010008B701000830
:1000D000B7010008B7010008B7010008B701000820
:1000E000B7010008B7010008B7010008B701000810
:1000F000B7010008B7010008B7010008B701000800
:10010000B7010008B7010008B7010008B7010008EF
:10011000B7010008B7010008B7010008B7010008DF
:10012000B7010008B7010008B7010008B7010008CF
:10013000B7010008B7010008B7010008B7010008BF
:10014000B7010008B7010008B7010008B7010008AF
:10015000B7010008B7010008B7010008B70100089F
:10016000B7010008B7010008B7010008B70100088F
:10017000B7010008B7010008B7010008000000003F
:10018000B7010008B7010008DFF80CD000F07AF8DA
:10019000004800478D0D00081804002006488047DD
:1001A00006480047FEE7FEE7FEE7FEE7FEE7FEE75C
:1001B000FEE7FEE7FEE7FEE70D0D000889010008F7
:1001C0002DE9F05F0546002092469B46884606468C
:1001D000814640241BE0284641464746224600F01F
:1001E00041F853465A46C01A914110D31146184659
:1001F000224600F028F82D1A67EB01084F462246E8
:100200000120002100F01FF817EB00094E41201ECD
:10021000A4F10104DFDC484631462A464346BDE8E6
:10022000F09FD2B201E000F8012B491EFBD27047CB
:100230000022F6E710B513460A4604461946FFF7B2
:10024000F0FF204610BD202A04DB203A00FA02F11C
:10025000002070479140C2F1200320FA03F31943B4
:1002600090407047202A04DB203A21FA02F0002156
:10027000704721FA02F3D040C2F1200291400843B6
:1002800019467047064C074D06E0E06840F0010350
:1002900094E8070098471034AC42F6D3FFF778FF94
:1002A000140E0008340E0008FEE70000704700003E
:1002B000EFF3108072B600BFFEE700002DE9F04FAB
:1002C00083B000F13E4202F1FF7243F6004E4FEA66
:1002D000B22241F60047C4F2010E0192C4F20207B5
:1002E00008224FF0010B00254FF000084FF00009E5
:1002F000B84208BF072200920AE000BF09F10109D5
:1003000008F10408B9F1100F05F1020500F0A18011
:100310000F680BFA09F417EA040CEFD0D1F804A027
:10032000BAF1120F15D80BFA0AF717F0061F10D002
:1003300087680322CE68AA4027EA0202AE40324311
:1003400082604268A243CAF3001404FA09F422430B
:100350004260C26803238E6803FA05F4A2436FEA81
:10036000040B06FA05F422434AF01004122CC26072
:100370000FD16FF0030202EA5902024408F01C0692
:100380000F23146A03FA06F70B69BC43B3402343F7
:10039000136202684B6802EA0B0203F00304AC40EC
:1003A0002243DB004FF0010B0260A7D5002243F689
:1003B00044030292C4F202031A684FF6084A42F458
:1003C00080421A601A68CFF6FF7A02F480420292E5
:1003D000029A29F00302724452F80A3008F00C0421
:1003E0000F26A640019FB343009E072F38BF3E460D
:1003F00006FA04F4234342F80A30DEF800204B6882
:1004000042EA0C04DE0358BF22EA0C04CEF8004096
:10041000DEF804209E0342EA0C0458BF22EA0C04D2
:10042000CEF80440DEF80820DE0242EA0C0458BF91
:1004300022EA0C04CEF8084043F60C44C4F201044E
:1004400022689B0242EA0C0358BF22EA0C03236095
:1004500054E703B0BDE8F08F002A08BF09048161AA
:100460007047000040F21000C2F2000000687047C0
:1004700040F2080040F21001C2F20000C2F2000196
:1004800000680A68104408607047000080B543F6B1
:100490000040C4F20200016841F40071016001688B
:1004A00041F480610160016841F4807101600320C2
:1004B00000F060F8002000F005F800F02BF80020B4
:1004C00080BD0000B0B540F20802C2F2000240F266
:1004D00004011268C2F200014FF47A730968B3FB99
:1004E000F2F20446B1FBF2F1084600F0C7FA0F2C15
:1004F0004FF001050CD858B94FF0FF3021460022CB
:10050000002500F027F840F20C00C2F20000046061
:100510002846B0BD80B582B0002043F6400101906E
:10052000C4F202014A6842F480424A604A6802F416
:1005300080420192019A0090086840F08050086063
:10054000086800F0805000900098072000F012F832
:1005500002B080BD70B514460D46064600F0E6FBBD
:100560002946224600F04AFB0146304600F0E6FBF1
:1005700070BD000080B500F0F3FB80BD2DE9F041B7
:10058000002800F08B8043F60808C4F202080446F5
:10059000D8F8F8030D4600F00F00884207D288F81B
:1005A000F853D8F8F80300F00F00A84276D120687D
:1005B000810717D5410705D5D8F8001041F4E0515F
:1005C000C8F80010010705D5D8F8001041F46041C3
:1005D000C8F80010D8F80010A26821F0F00111430B
:1005E000C8F80010C0073FD1D8F8F80300F00F009A
:1005F000A84207D988F8F853D8F8F80300F00F009C
:10060000A8424BD12068410707D5D8F80010E2680E
:1006100021F4E0511143C8F80010000708D5D8F8BC
:100620000000216920F4604040EAC100C8F80000E1
:1006300000F054F8D8F8001040F60462C1F303113A
:10064000C0F60002515C40F2040220FA01F140F2CF
:100650000C00C2F200000068C2F200021160FFF755
:1006600031FF0020BDE8F0816068811E022907D2B9
:1006700058F8081C89015CBF0120BDE8F08110E03A
:10068000012807D158F8081C89035CBF0120BDE888
:10069000F08106E058F8081C890702D40120BDE863
:1006A000F081D8F8001021F003010843C8F80000D9
:1006B000FFF7D8FE064641F2883700BFD8F80000A1
:1006C000616800F00C00B0EB810F8DD0FFF7CAFE1F
:1006D000801BB842F2D90320BDE8F08110B543F683
:1006E0000404C4F20204606800F00C0142F200400D
:1006F0000829C0F2F40007D0042918BF10BD41F248
:100700000020C0F27A0010BD216801F03F0221688C
:1007100023684902C3F3881105D4A1FB000100231B
:10072000FFF74EFD06E041F20020C0F27A00484398
:10073000B0FBF2F021680222C1F3014102EB41015A
:10074000B0FBF1F010BD00002DE9F04182B00028AF
:1007500000F098800446007843F60006C007C4F213
:10076000020643D0B06800F00C00042805D13068C0
:1007700080033BD56068C8BB84E0B06800F00C0023
:10078000082802D170684002F1D46568B5F5A02F41
:100790000AD0B5F5803F0BD0306820F4803030604F
:1007A000306820F4802006E0306840F4802030601B
:1007B000306840F480303060FFF754FE002D05466D
:1007C00011D000BF3068800310D4FFF74BFE401BF0
:1007D0006428F7D918E100BFFFF744FE401B6428E6
:1007E0004FF003004BD830688003F5D420788007A1
:1007F00019D5B06810F00C0F08D0B06800F00C00EC
:10080000082840F08080706840027CD430688007FF
:1008100002D5E068012835D13068216920F0F80060
:1008200040EAC1003060207800072FD420784007CC
:1008300043D4A56915B3B06800F00C00082840F057
:100840009580012D1ED07068E16900F480028A4213
:1008500018D1216A00F03F028A4213D147F6C071D5
:10086000626A014091420DD1A16A00F440328A428D
:1008700008D1E16A00F07060884203D1002002B024
:10088000BDE8F081012002B0BDE8F0816069002878
:1008900040F20000C4F2472057D00121C0F8801E6A
:1008A000FFF7E0FD054600BF706F8007BED4FFF77D
:1008B000D9FD401B0228F7D9A6E0306C10F0805813
:1008C0000AD100200190306C40F080503064306CD0
:1008D00000F080500190019847F20007C4F2000731
:1008E0003868C00524D4386840F480703860FFF759
:1008F000B9FD05463868C0051AD4FFF7B3FD401BA3
:100900000228F7D980E0E068002851D00020C4F226
:10091000472001210160FFF7A5FD054630688007EB
:100920003FF57AAFFFF79EFD401B0228F6D96BE03A
:10093000A568052D50D0012D52D0306F20F0010058
:100940003067306F20F004004DE00021C0F8801EB9
:10095000FFF788FD054600BF706F80077FF566AF23
:10096000FFF780FD401B0228F6D94DE00027C4F2B6
:10097000472700203866FFF775FD022D05460BD18D
:100980003068800158D5FFF76DFD401B02284FF0FD
:100990000300F5D973E700BF306880017FF56EAFC3
:1009A000FFF760FD401B02284FF00300F4D966E713
:1009B0000020C4F2472000210160FFF753FD0546E7
:1009C000306880077FF52FAFFFF74CFD401B0228F2
:1009D0004FF00300F4D952E7306F40F00400306765
:1009E000306F40F001003067FFF73CFD002D0546F9
:1009F00041F2883714D000BF306F800713D4FFF75F
:100A000031FD401BB842F7D9032002B0BDE8F081A8
:100A1000FFF728FD401BB8424FF003003FF62FAF11
:100A2000306F8007F4D4B8F1000F7FF402AF306C60
:100A300020F080503064FCE604F11C052FCD084303
:100A400040EA8210D9034FF6FF729143A1F580313D
:100A500040EA05600843706001203866FFF702FD38
:100A6000044600BF306880013FF508AFFFF7FAFC8D
:100A7000001B02284FF00300F4D900E780B500F016
:100A8000D7F880BDFEE7000040F60061CEF200011D
:100A9000D1F88020D2071CBF09685FEAC17100D17C
:100AA00070474FF0604100BF0A680AB900BFFBE71A
:100AB000087070472DE9F04387B0002743F63000F7
:100AC0000697CDE90477CDE902770197C4F20200D9
:100AD000016840F6004441F0100101600168C4F271
:100AE000020401F0100101910199019701680022AF
:100AF00041F00401016001684FF4704801F0040105
:100B0000019101990197016841F08001016001683C
:100B100001F08001019101990197016841F0010103
:100B20000160016801F001010191019901970168DB
:100B300041F002010160016801F002010191019997
:100B40000197016841F00801016000684FF47041AD
:100B500000F00800019001982046FFF77DFC4FF659
:100B6000FF7002AD02904FF0030904F58060294642
:100B7000CDE90397FFF7A2FB43F6FF70CDE9020929
:100B8000A4F5806029460497FFF798FB49F6FF70AB
:100B9000CDE90209A4F5406029460497FFF78EFBD2
:100BA0004FF6F370A4F50066CDE9020930462946F8
:100BB0000497FFF783FB0420CDE90207304629465E
:100BC0000497FFF77BFB40F6FF70CDE90209204652
:100BD00029460497FFF772FB0120CDF80880CDE984
:100BE0000307204629460597FFF768FB07B0BDE8D5
:100BF000F0830000FEE70000FEE7000000F00700C1
:100C000080F00703042B28BF04234FF0FF3C033878
:100C10000CFA03F338BF0020994381400CFA00F02E
:100C200022EA000008437047704700007047000048
:100C3000B0B501380024B4EB106F1CBF0120B0BD6B
:100C40004EF21005CEF2000568604FF0FF300F2124
:100C500000F074F80720AC6028602046B0BD0000AA
:100C600080B5FFF705FC80BD70B592B006AC20469C
:100C70003021FFF7DDFA002543F640000595CDE968
:100C80000355CDE901550095C4F202000168022622
:100C900041F080510160006800F0805000900098A1
:100CA00047F200000095C4F20000016841F4804161
:100CB0000160006800F480400090009801200690D8
:100CC0004FF4803007904FF480000D9004200E9078
:100CD00064200C96CDE90F06072011902046FFF7FF
:100CE00033FD88B90F20CDE901064FF4A0500490E0
:100CF0004FF48050059001A803210395FFF73EFCB7
:100D0000002804BF12B070BDFFF7D2FA4EF688502B
:100D1000CEF20000016841F4700101604FF0006103
:100D200040F8801C70470000FEE700004EF60C50B3
:100D3000CEF200000068C0F3022070474EF6145354
:100D400000F00F02CEF2000309011A4400F16043E3
:100D5000B0F1FF3FC8BF03F5644211707047000057
:100D60004EF60C51CEF200010A684FF6FF031A400E
:100D700060F30A2242F0806040F0FD700860704726
:100D800010B50446FFF780FE204610BDFFF77EFB3E
:100D9000FFF76AFFFFF78EFE02A000F00BF800BF1E
:100DA000FEE700BFA1486F6C612C206D756E646F0B
:100DB00021000000014A024900F013B8810D00082B
:100DC0000000002002E008C8121F08C1002AFAD162
:100DD00070477047002001E001C1121F002AFBD1BB
:100DE00070472DE9F04116460F460446002503E002
:100DF0003946B047641C6D1C20780028F8D128467D
:100E0000BDE8F081000000000000000001020304C2
:100E100006070809380E0008000000201000000036
:100E2000C40D0008480E000810000020080400004F
:100E3000D40D000800000000000000000024F400B1
:080E4000010000001000000099
:040000050800018965
:00000001FF
