:020000040800F2
:10000000480400209D010008590D00080D0B000850
:10001000550D0008A9020008A10E0008000000000C
:100020000000000000000000000000008D0D00082E
:10003000AD02000800000000890D0008C10D000895
:10004000B7010008B7010008B7010008B7010008B0
:10005000B7010008B7010008B1020008B7010008A5
:10006000B7010008B7010008B7010008B701000890
:10007000B7010008B7010008B7010008B701000880
:10008000B7010008B7010008B7010008B701000870
:10009000B7010008B7010008B7010008B701000860
:1000A000B7010008B7010008B7010008B701000850
:1000B000B7010008B7010008B7010008B701000840
:1000C000B7010008B7010008B7010008B701000830
:1000D000B7010008B7010008B7010008B701000820
:1000E000B7010008B7010008B7010008B701000810
:1000F000B7010008B7010008B7010008B701000800
:10010000B7010008B7010008B7010008B7010008EF
:10011000B7010008B7010008B7010008B7010008DF
:10012000B7010008B7010008B7010008B7010008CF
:10013000B7010008B7010008B7010008B7010008BF
:10014000B7010008B7010008B7010008B7010008AF
:10015000B7010008B7010008B7010008B70100089F
:10016000B7010008B7010008B7010008B70100088F
:10017000B7010008B7010008B7010008000000003F
:10018000B7010008B7010008DFF80CD000F07AF8DA
:100190000048004701100008480400200648804736
:1001A00006480047FEE7FEE7FEE7FEE7FEE7FEE75C
:1001B000FEE7FEE7FEE7FEE7850E0008890100087E
:1001C0002DE9F05F0546002092469B46884606468C
:1001D000814640241BE0284641464746224600F01F
:1001E00041F853465A46C01A914110D31146184659
:1001F000224600F028F82D1A67EB01084F462246E8
:100200000120002100F01FF817EB00094E41201ECD
:10021000A4F10104DFDC484631462A464346BDE8E6
:10022000F09FD2B201E000F8012B491EFBD27047CB
:100230000022F6E710B513460A4604461946FFF7B2
:10024000F0FF204610BD202A04DB203A00FA02F11C
:10025000002070479140C2F1200320FA03F31943B4
:1002600090407047202A04DB203A21FA02F0002156
:10027000704721FA02F3D040C2F1200291400843B6
:1002800019467047064C074D06E0E06840F0010350
:1002900094E8070098471034AC42F6D3FFF778FF94
:1002A000C4140008E4140008FEE7000070470000D2
:1002B00080B5012000F03AF880BD0000EFF3108017
:1002C00072B600BFFEE7000040F23400C2F2000048
:1002D000016891B940F22C01C2F20001096840F2B4
:1002E0003C02C2F20002116040F21801C2F20001A9
:1002F00001220A604FF0FF3101600168012918BF37
:10030000704740F22C01C2F20001096840F23C0241
:10031000C2F20002116040F21801C2F20001032291
:100320000A604FF0FF3101607047000080B543F66E
:100330001441C4F201010A68024208BF80BD08608E
:10034000FFF7C2FF80BD00002DE9F04F83B000F140
:100350003E4202F1FF7243F6004E4FEAB22241F6EE
:100360000047C4F2010E0192C4F2020708224FF0C6
:10037000010B00254FF000084FF00009B84208BFFC
:10038000072200920AE000BF09F1010908F1040800
:10039000B9F1100F05F1020500F0A1800F680BFA0A
:1003A00009F417EA040CEFD0D1F804A0BAF1120F47
:1003B00015D80BFA0AF717F0061F10D0876803222A
:1003C000CE68AA4027EA0202AE4032438260426809
:1003D000A243CAF3001404FA09F422434260C2683B
:1003E00003238E6803FA05F4A2436FEA040B06FAAE
:1003F00005F422434AF01004122CC2600FD16FF0B2
:10040000030202EA5902024408F01C060F23146A90
:1004100003FA06F70B69BC43B34023431362026837
:100420004B6802EA0B0203F00304AC402243DB00FA
:100430004FF0010B0260A7D5002243F6440302925D
:10044000C4F202031A684FF6084A42F480421A6066
:100450001A68CFF6FF7A02F480420292029A29F0DB
:100460000302724452F80A3008F00C040F26A6402A
:10047000019FB343009E072F38BF3E4606FA04F49F
:10048000234342F80A30DEF800204B6842EA0C04AD
:10049000DE0358BF22EA0C04CEF80040DEF8042048
:1004A0009E0342EA0C0458BF22EA0C04CEF8044032
:1004B000DEF80820DE0242EA0C0458BF22EA0C04EF
:1004C000CEF8084043F60C44C4F2010422689B02B3
:1004D00042EA0C0358BF22EA0C03236054E703B03E
:1004E000BDE8F08F40F24000C2F2000000687047A3
:1004F00040F20C0040F24001C2F20000C2F20001E2
:1005000000680A68104408607047000080B543F630
:100510000040C4F20200016841F40071016001680A
:1005200041F480610160016841F480710160032041
:1005300000F064F8002000F005F800F02BF800202F
:1005400080BD0000B0B540F20C02C2F2000240F2E1
:1005500000011268C2F200014FF47A730968B3FB1C
:10056000F2F20446B1FBF2F1084600F0CBFA0F2C90
:100570004FF001050CD858B94FF0FF30214600224A
:10058000002500F02BF840F21000C2F200000460D9
:100590002846B0BD80B582B0002043F640010190EE
:1005A000C4F202014A6842F480424A604A6802F496
:1005B00080420192019A0090086840F080500860E3
:1005C000086800F0805000900098072000F016F8AE
:1005D00002B080BD80B500F065FC80BD70B51446EA
:1005E0000D46064600F06EFC2946224600F0B6FB9A
:1005F0000146304600F06EFC70BD000080B500F092
:100600007BFC80BD2DE9F041002800F08B8043F693
:100610000808C4F202080446D8F8F8030D4600F0B2
:100620000F00884207D288F8F853D8F8F80300F092
:100630000F00A84276D12068810717D5410705D55C
:10064000D8F8001041F4E051C8F80010010705D5B2
:10065000D8F8001041F46041C8F80010D8F8001034
:10066000A26821F0F0011143C8F80010C0073FD183
:10067000D8F8F80300F00F00A84207D988F8F8531B
:10068000D8F8F80300F00F00A8424BD120684107CA
:1006900007D5D8F80010E26821F4E0511143C8F8FA
:1006A0000010000708D5D8F80000216920F4604048
:1006B00040EAC100C8F8000000F054F8D8F8001073
:1006C00041F2B242C1F30311C0F60002515C40F2A4
:1006D000000220FA01F140F21000C2F200000068AE
:1006E000C2F200021160FFF72DFF0020BDE8F0818B
:1006F0006068811E022907D258F8081C89015CBF76
:100700000120BDE8F08110E0012807D158F8081C4D
:1007100089035CBF0120BDE8F08106E058F8081CA1
:10072000890702D40120BDE8F081D8F8001021F03B
:1007300003010843C8F80000FFF7D4FE064641F263
:10074000883700BFD8F80000616800F00C00B0EBFB
:10075000810F8DD0FFF7C6FE801BB842F2D903206F
:10076000BDE8F08110B543F60404C4F202046068E9
:1007700000F00C0142F200400829C0F2F40007D05A
:10078000042918BF10BD43F20000C0F2750010BD6F
:10079000216801F03F02216823684902C3F38811F0
:1007A00005D4A1FB00010023FFF70AFD06E043F298
:1007B0000000C0F275004843B0FBF2F0216802224D
:1007C000C1F3014102EB4101B0FBF1F010BD0000AB
:1007D0002DE9F04182B0002800F0988004460078AE
:1007E00043F60006C007C4F2020643D0B06800F02A
:1007F0000C00042805D1306880033BD56068C8BB75
:1008000084E0B06800F00C00082802D17068400253
:10081000F1D46568B5F5A02F0AD0B5F5803F0BD0AF
:10082000306820F480303060306820F4802006E0AA
:10083000306840F480203060306840F480303060B0
:10084000FFF750FE002D054611D000BF3068800331
:1008500010D4FFF747FE401B6428F7D918E100BF0A
:10086000FFF740FE401B64284FF003004BD8306870
:100870008003F5D42078800719D5B06810F00C0FEC
:1008800008D0B06800F00C00082840F08080706844
:1008900040027CD43068800702D5E068012835D159
:1008A0003068216920F0F80040EAC100306020780B
:1008B00000072FD42078400743D4A56915B3B0684A
:1008C00000F00C00082840F09580012D1ED07068C3
:1008D000E16900F480028A4218D1216A00F03F02E7
:1008E0008A4213D147F6C071626A014091420DD12C
:1008F000A16A00F440328A4208D1E16A00F07060D7
:10090000884203D1002002B0BDE8F081012002B08E
:10091000BDE8F0816069002840F20000C4F2472081
:1009200057D00121C0F8801EFFF7DCFD054600BF4F
:10093000706F8007BED4FFF7D5FD401B0228F7D9A2
:10094000A6E0306C10F080580AD100200190306C85
:1009500040F080503064306C00F08050019001987D
:1009600047F20007C4F200073868C00524D438688D
:1009700040F480703860FFF7B5FD05463868C00563
:100980001AD4FFF7AFFD401B0228F7D980E0E068DA
:10099000002851D00020C4F2472001210160FFF758
:1009A000A1FD0546306880073FF57AAFFFF79AFD55
:1009B000401B0228F6D96BE0A568052D50D0012D0B
:1009C00052D0306F20F001003067306F20F004000B
:1009D0004DE00021C0F8801EFFF784FD054600BFF2
:1009E000706F80077FF566AFFFF77CFD401B022824
:1009F000F6D94DE00027C4F2472700203866FFF7FC
:100A000071FD022D05460BD13068800158D5FFF7E6
:100A100069FD401B02284FF00300F5D973E700BFC2
:100A2000306880017FF56EAFFFF75CFD401B022848
:100A30004FF00300F4D966E70020C4F247200021FC
:100A40000160FFF74FFD0546306880077FF52FAF47
:100A5000FFF748FD401B02284FF00300F4D952E78E
:100A6000306F40F004003067306F40F001003067B5
:100A7000FFF738FD002D054641F2883714D000BF3E
:100A8000306F800713D4FFF72DFD401BB842F7D914
:100A9000032002B0BDE8F081FFF724FD401BB842FF
:100AA0004FF003003FF62FAF306F8007F4D4B8F15A
:100AB000000F7FF402AF306C20F080503064FCE611
:100AC00004F11C052FCD084340EA8210D9034FF6EC
:100AD000FF729143A1F5803140EA056008437060E0
:100AE00001203866FFF7FEFC044600BF3068800135
:100AF0003FF508AFFFF7F6FC001B02284FF003009C
:100B0000F4D900E780B500F043F980BDFEE70000AE
:100B100080B586B0002043F630010190C4F2020196
:100B20000A6842F008020A60096801F008010191B0
:100B300001994FF4704101910121CDE90210022089
:100B4000049040F60040C4F2020001A9FFF7FCFB4C
:100B500006B080BD70B540F2400540F23C06C2F2DE
:100B60000005C2F200062968306840F2180441F21C
:100B70008832C2F2000402442068914220F002014F
:100B800009D9F1B1032818D001281AD10220206018
:100B900000F0DEF915E0012913D140F21C00C2F289
:100BA00000000178012902D10021017009E041789B
:100BB000012904BF0021417003E00020206000F003
:100BC000ABF92868316841F288321144884222D852
:100BD0002068012811D003281DD140F21C00C2F268
:100BE00000008178012904BF00218170C1780129AA
:100BF00018BF70BD0021C17070BD40F21C00C2F270
:100C000000000179012904BF002101714179012906
:100C100004BF0021417170BD2DE9F04387B000276A
:100C200043F630000697CDE90477CDE902770197C6
:100C3000C4F202000168002441F010010160016863
:100C4000C4F2020401F010010191019901970168B9
:100C500002AD41F00401016001684FF6FF7801F038
:100C6000040101910199019701684FF0030941F0D6
:100C700080010160016801F08001019101990197F3
:100C8000016841F001010160016801F00101019179
:100C900001990197016841F002010160016801F0CA
:100CA0000201019101990197016841F00801016079
:100CB0000068294600F008000190019804F5805072
:100CC000CDF80880CDE90397FFF73EFB43F6FF70B0
:100CD000CDE9020904F5006029460497FFF734FBCB
:100CE000012002900020C1F21100CDE90307204647
:100CF0002946FFF729FB49F6FE70CDE90209204697
:100D000029460497FFF720FB4FF6F37004F5806641
:100D1000CDE90209304629460497FFF715FB042068
:100D2000CDE90207304629460497FFF70DFB04F58D
:100D300040602946CDE902890497FFF705FB0620AC
:100D400000210022FFF74AFC0620FFF743FC07B012
:100D5000BDE8F083FEE70000FEE7000000F00700BA
:100D600080F00703042B28BF04234FF0FF3C033817
:100D70000CFA03F338BF0020994381400CFA00F0CD
:100D800022EA0000084370477047000070470000E7
:100D9000B0B501380024B4EB106F1CBF0120B0BD0A
:100DA0004EF21005CEF2000568604FF0FF300F21C3
:100DB00000F090F80720AC6028602046B0BD00002D
:100DC00080B500F08BF940F24000C2F200000068EC
:100DD00040F23001C2F200010860FFF789FB80BDDC
:100DE00070B592B006AC20463021FFF721FA0025FD
:100DF00043F640000595CDE90355CDE90155009531
:100E0000C4F202000168022641F0805101600068CE
:100E100000F080500090009847F200000095C4F266
:100E20000000016841F480410160006800F48040E6
:100E300000900098012006904FF4803007904FF406
:100E400080000D9004200E9064200C96CDE90F06D2
:100E5000072011902046FFF7BBFC80B90F20CDE999
:100E60000106802003904FF48050CDE9040501A8CD
:100E70000121FFF7C7FB002804BF12B070BDFFF7C8
:100E80001DFA00004EF68850CEF20000016841F4D1
:100E9000700101604FF0006140F8801C7047000055
:100EA000FEE70000002848BF704700F01F01012244
:100EB00002FA01F14EF200124009CEF2000242F8AD
:100EC000201070474EF60C50CEF200000068C0F3C0
:100ED000022070474EF6145300F00F02CEF20003CA
:100EE00009011A4400F16043B0F1FF3FC8BF03F5A8
:100EF00064421170704700004EF60C51CEF20001B2
:100F00000A684FF6FF031A4060F30A2242F080603D
:100F100040F0FD700860704740F23400C2F20000FB
:100F2000002101607047000080B586B04FF420605A
:100F3000019001200290002003900220049040F6CE
:100F40000040C4F2020001A9FFF7FEF906B080BD1F
:100F500040F23400C2F2000001210160704700003D
:100F600040F21800C2F200000068032888BF7047F2
:100F7000DFE800F00234132440F21C00C2F200004B
:100F80008179012902BF002181717047C17901294E
:100F900002BF0021C1717047704740F21C00C2F2CD
:100FA0000000817A012902BF002181727047C17A55
:100FB000012902BF0021C1727047EDE740F21C0019
:100FC000C2F20000017B012902BF002101737047BA
:100FD000417B012904BF00214173704740F21C008E
:100FE000C2F20000017A012902BF0021017270479C
:100FF000417A012902BF002141727047CCE700000D
:10100000FFF784FAFFF7ECFEFFF706FEFFF780FD1F
:10101000FFF78AFF00F016F840F20000C2F200006D
:10102000006844F6D351C1F26201A0FB01018809B6
:10103000FFF768FDFFF78EFDFFF792FF00F01AF84B
:10104000F8E70000B0B586B04FF470400190012081
:1010500040F2144502900220C4F2020500240490DC
:10106000A5F1140001A90394FFF76EF928682C601C
:1010700006B0B0BD81B09DF80300032886BF0020F4
:101080008DF803009DF8030040F21C00C2F200003E
:10109000807B00B340F21800C2F200000068032811
:1010A00005D0012808D19DF80300013002E09DF829
:1010B000030001388DF8030040F21440C4F202002E
:1010C00001689DF8032040F20403C2F200039A5C19
:1010D00041EA0231016001B07047000080B582B082
:1010E000FFF700FA0190019840F22C01C2F20001D2
:1010F000086040F23000C2F2000040F2380E096889
:101100000268C2F2000EDEF80030891A1944CEF8E7
:101110000010DEF80010B1F57A7F24BF0021CEF870
:10112000001040F21801C2F200010A6822F0020128
:10113000012940F21C01C2F2000121D10B78EBB968
:10114000DEF8003047F6D50CC2F2E96C03FB0CF375
:1011500041F26E204FEAB303C0F2830083420DD800
:10116000DEF8000048F6381300FB0CF04FEAF00000
:10117000C0F24103984224BF012008704878B8B3F8
:10118000032A48D18878F8B9DEF8000042F6470310
:10119000CBF2A373584346F29F134FEA7000C0F29C
:1011A0005703984210D8DEF8000047F6D503C2F284
:1011B000E963584348F638134FEAF000C0F24103A0
:1011C000984224BF01208870C87820BBDEF8000058
:1011D00047F6D503C2F2E963584348F637134FEA9E
:1011E000F000C0F2410398429CBF0120C87012E099
:1011F000DEF8000047F6D503C2F2E963584348F62B
:1012000037134FEAF000C0F2410398429CBF01201F
:101210004870032AB6D0012A3CD10879C0BBDEF859
:10122000000047F6D50CC2F2E96C00FB0CF042F26C
:10123000DD434FEA7000C0F20613984228D8DEF86A
:10124000000048F6381300FB0CF04FEAF000C0F243
:10125000410398421CD3DEF8000041F26F2300FBEB
:101260000CF04FEAB000C0F28303984210D3DEF8CE
:10127000000042F64703CBF2A373584346F2A01393
:101280004FEA7000C0F25703984224BF0120087152
:10129000C87840B3022A4DD0002A6DD18879E8B9C8
:1012A000DEF800004CF6CD4CCCF6CC4C00FB0CF03C
:1012B00049F699134FEA7000C1F6991398420DD878
:1012C000DEF800004CF6CD4300FB0CF04FEAB00016
:1012D000C0F6CC43984224BF01208871C879B0B1D0
:1012E000022A27D048E0DEF8000047F6D503C2F214
:1012F000E963584348F637134FEAF000C0F2410360
:1013000098429CBF01204871022AC5D112E0DEF844
:1013100000004CF6CD43CCF6CC4358434CF6CC43BE
:101320004FEAB000C0F6CC4398429CBF0120C87180
:10133000022A21D1887AE8B9DEF800004CF6CD4CBB
:10134000CCF6CC4C00FB0CF049F699134FEA700038
:10135000C1F6991398420DD8DEF800004CF6CD4343
:1013600000FB0CF04FEAB000C0F6CC43984224BF1B
:1013700001208872C87AA8B3012A46D1087AE8B950
:10138000DEF800004CF6CD4CCCF6CC4C00FB0CF05B
:101390004CF6CC434FEAB000C0F6CC4398420DD88F
:1013A000DEF8000046F2676300FB0CF04FEAF00045
:1013B000C0F26663984224BF01200872487A20BBBD
:1013C000DEF800004CF6CD43CCF6CC43584346F251
:1013D00066634FEAF000C0F2666398429CBF01204A
:1013E000487212E0DEF800004CF6CD43CCF6CC4358
:1013F00058434CF6CC434FEAB000C0F6CC43984279
:101400009CBF0120C872012AB8D0032A30D1087BC2
:10141000D8B9DEF800004CF6CD42CCF6CC425043B1
:101420004CF6CC434FEAB000C0F6CC4398420CD8FF
:10143000DEF80000504346F267624FEAF000C0F267
:101440006662904224BF01200873487B80B9DEF8B1
:1014500000004CF6CD42CCF6CC42504346F26662D8
:101460004FEAF000C0F2666290429CBF01204873D0
:10147000887B08B102B080BDDEF800004CF6CD429A
:10148000CCF6CC425043B0F1333F9CBF012088736F
:1014900002B080BD02E008C8121F08C1002AFAD1BC
:1014A00070477047002001E001C1121F002AFBD1E4
:1014B000704700000000000000000102030406075E
:1014C00008090000E81400080000002018000000CF
:1014D00094140008001500081800002030040000D3
:1014E000A4140008000000000024F400000102041D
:1014F00008000000010000001000000000000000D3
:040000050800018965
:00000001FF
